S016000070776D206C656420666164696E672E73726563DC
S11300000C9434000C943E000C943E000C943E007E
S11300100C943E000C943E000C943E000C943E0064
S11300200C943E000C943E000C943E000C943E0054
S11300300C943E000C943E000C943E000C943E0044
S11300400C943E000C943E000C943E000C943E0034
S11300500C943E000C943E000C943E000C943E0024
S11300600C943E000C943E0011241FBECFEFD8E048
S1130070DEBFCDBF0E9440000C9476000C940000BB
S11300808AB180648AB984B5816084BD84B5826094
S113009084BD84B5806884BD85B5816085BD85B522
S11300A0826085BD17BC20E030E00BC087B58F5F50
S11300B087BD8FE39CE90197F1F700C000002F5F33
S11300C03F4F2F3F310591F38CF32FEF30E00BC0FE
S11300D087B5815087BD8FE39CE90197F1F700C094
S11300E000002150310933239CF7DDCFF894FFCF72
S9030000FC
